:020000040800F2
:1000000068080020D1010008990200089102000848
:10001000950200088B0200084D0300080000000054
:10002000000000000000000000000000C7020008FF
:100030008F02000800000000C5020008C902000885
:10004000EB010008EB010008EB010008EB010008E0
:10005000EB010008EB010008EB010008EB010008D0
:10006000EB010008EB010008EB010008EB010008C0
:10007000EB010008EB010008EB010008EB010008B0
:10008000EB010008EB010008EB010008EB010008A0
:10009000EB010008EB010008EB010008EB01000890
:1000A000EB010008EB010008EB010008EB01000880
:1000B000EB010008EB010008EB010008EB01000870
:1000C000EB010008EB010008EB010008EB01000860
:1000D000EB010008EB010008EB010008EB01000850
:1000E000EB010008EB010008EB010008EB01000840
:1000F000EB010008EB010008EB010008EB01000830
:10010000EB010008EB010008EB010008EB0100081F
:10011000EB010008EB010008EB010008EB0100080F
:10012000EB010008EB010008EB010008EB010008FF
:1001300000F002F800F03CF80AA090E8000C8244BD
:100140008344AAF10107DA4501D100F031F8AFF29A
:10015000090EBAE80F0013F0010F18BFFB1A43F0A5
:10016000010318476805000088050000103A24BF05
:1001700078C878C1FAD8520724BF30C830C144BF0C
:1001800004680C607047000000230024002500264E
:10019000103A28BF78C1FBD8520728BF30C148BFEA
:1001A0000B6070471FB500F08BFA1FBD10B510BD76
:1001B00000F031F81146FFF7F5FF00F089F900F083
:1001C0004FF803B4FFF7F2FF03BC00F057F800004C
:1001D0000948804709480047FEE7FEE7FEE7FEE7DB
:1001E000FEE7FEE7FEE7FEE7FEE7FEE70448054917
:1001F000054A064B70470000D10200083101000893
:1002000068000020680800206804002068040020BE
:10021000704770477047754600F02CF8AE460500F1
:100220006946534620F00700854618B020B5FFF711
:10023000DDFFBDE820404FF000064FF000074FF013
:1002400000084FF0000B21F00701AC46ACE8C009F4
:10025000ACE8C009ACE8C009ACE8C0098D467047FD
:1002600010B50446AFF300802046BDE81040FFF70C
:10027000A8BF00000048704708000020014918206E
:10028000ABBEFEE726000200704700BFFEE77047E6
:1002900000BFFEE700BFFEE77047000010B5002872
:1002A00007DA0A07140E054A00F00F031B1FD45487
:1002B00003E00A07130E024A135410BD18ED00E0C4
:1002C00000E400E07047704710B500F04BF810BD37
:1002D00008B51B48006840F47000194908601948C7
:1002E000006840F00100174908600846406840F087
:1002F000800048600020009002E00098401C0090C0
:1003000044F6206100988842F7D30E48406820F0F8
:1003100003000C494860084600680B490840094939
:1003200008604FF41F0088600846006820F48020B1
:10033000086000204860C86200F096F908BD00001F
:1003400088ED00E000100240FFFFF6FE00BFFEE770
:100350000349086000BF024909680029FBD17047C2
:10036000040000200448006820B103480068401ED3
:100370000149086070470000040000204161704797
:1003800001617047F0B5044616460025002201F0D1
:100390000F0501F0100747B1042E05D145F0030504
:1003A000E76B1F43E76300E0354300201EE00127B1
:1003B00087401F40C7B122684FEA800C0F2707FA19
:1003C0000CF7BA43870005FA07F73A43282904D106
:1003D000012787401F40676105E0482903D10127B5
:1003E00087401F4027612260471CB8B20828DED32F
:1003F000082022E0012787401F40E7B16268A0F192
:1004000008074FEA870C0F2707FA0CF7BA43A0F149
:100410000807BF0005FA07F73A43282904D1012746
:1004200087401F40676105E0482903D101278740C5
:100430001F4027616260471CB8B21028DAD3F0BDB4
:10044000F0B50A46002300240021002500F00046F4
:10045000B6F1004F02D11D4EF16901E01B4E7168EB
:10046000C0F3034583B200F44016B6F5401F08D12F
:1004700021F0E061154E766826F0E066134F7E604D
:1004800012E000F48016B6F5801F06D1032606FAA6
:1004900005F4A14341F0E06106E0460D360103FAA0
:1004A00006F6B14341F0E06122B1460D360103FA90
:1004B00006F6314300F00046B6F1004F02D1034E7C
:1004C000F16101E0014E7160F0BD000000000140EB
:1004D000002000F02FF800F0CBF84FF4C06000F0DF
:1004E00035F84FF47A70FFF733FF01210F48FFF71B
:1004F000A7FF40F2036000F029F8102303221946F9
:100500000B48FFF73FFF0FE04FF47A70FFF720FF33
:1005100010210748FFF734FF4FF47A70FFF718FFF8
:1005200010210348FFF72AFFEEE70000000130002A
:10053000000C0140044A516821F0F00141EA000238
:10054000014B5A607047000000100240064A02EB5F
:100550009011096800F01F0301229A401143024BD9
:1005600003EB901211607047001002400020002140
:10057000394A126842F00102374B1A6000BF401C32
:10058000354A126802F0020111B9B0F5A06FF6D138
:10059000314A126802F002020AB900BFFEE72E4A91
:1005A000D26942F080522C4BDA612C4A126842F434
:1005B00040422A4B1A60284A5268274B5A601A4612
:1005C00052685A601A46526842F480625A601A466B
:1005D0005268234B1A40204B5A601A465268214BEE
:1005E0001A431D4B5A601A46126842F080721A6014
:1005F00000BF194A126802F00072002AF9D0174AA7
:10060000126842F48032154B1A6000BF134A5268D8
:1006100002F48032002AF9D0104A126842F4003203
:100620000E4B1A6000BF0D4A526802F40032002AD5
:10063000F9D0094A526822F00302074B5A601A4661
:10064000526842F002025A6000BF034A526802F048
:100650000802002AF9D070470010024000700040E4
:10066000FFFFC3B70000340810B5FFF77FFF10BDD0
:1006700010B5124800684FF47A71B0FBF1F4601EB7
:10068000B0F1807F01D301200FE0601E4FF0E02128
:1006900048610F214FF0FF30FFF700FE00204FF0C0
:1006A000E021886107200861002008B100BFFEE753
:1006B0000021481EFFF7F2FD10BD000000000020E1
:1006C0004FF04070E1EE100A70470000EC060008A1
:1006D00000000020080000006C010008F40600087B
:1006E000080000206008000088010008000E2707AD
:0406F0000000000006
:0400000508000131BD
:00000001FF
