:020000040800F2
:1000000058090020490100085F0300087D0200082C
:100010005D030008410200084D04000800000000D4
:100020000000000000000000000000008303000842
:100030004302000800000000810300088503000857
:100040006301000863010008630100086301000800
:1000500063010008630100086301000863010008F0
:1000600063010008630100086301000863010008E0
:1000700063010008630100086301000863010008D0
:1000800063010008630100086301000863010008C0
:1000900049040008630100086301000845020008E4
:1000A00063010008630100086301000863010008A0
:1000B0006301000863010008630100086301000890
:1000C0006301000863010008630100086301000880
:1000D00063010008110400086301000863010008BF
:1000E0006301000863010008630100086301000860
:1000F0006301000863010008630100086301000850
:10010000630100086301000863010008630100083F
:10011000630100086301000863010008630100082F
:10012000630100086301000863010008630100081F
:10013000DFF810D000F02CF8004800472910000824
:10014000AFF3008058090020064880470648004762
:10015000FEE7FEE7FEE7FEE7FEE7FEE7FEE7FEE777
:10016000FEE7FEE7B503000831010008D2B201E066
:1001700000F8012B491EFBD270470022F6E710B5AC
:1001800013460A4604461946FFF7F0FF204610BD05
:10019000064C074D06E0E06840F0010394E80700D4
:1001A00098471034AC42F6D3FFF7C6FF8C1D000809
:1001B000AC1D000870B58C1810F8015B15F0070332
:1001C00001D110F8013B2A1106D110F8012B03E0F0
:1001D00010F8016B01F8016B5B1EF9D12B0705D4F8
:1001E0000023521E0DD401F8013BFAE710F8013B41
:1001F000CB1A921C03E013F8015B01F8015B521E5D
:10020000F9D5A142D8D3002070BD70B505460024B1
:10021000E0B2294600F004F8641C102CF8DB70BD35
:1002200009B1012200E000220449044B403B51F88F
:10023000201053F8200000F0EDBC000084000020E6
:10024000FEE7704710B54FF48074204600F0B6FB0F
:1002500000280ED0204600F0ABFB012000F062FB2E
:100260002146044800F058FD002802D1024901202F
:10027000087010BD000C014000000020FEE70000E7
:100280002DE9FF47814632A00024D0E90010CDE9D6
:100290000010314E27462046B47074703470FFF75A
:1002A000B4FF7770E846707800F06AFE717808F85D
:1002B0000100204484B2491CC8B270700828F2D3EF
:1002C000082C43D2C4F10800C4B2002102970846AA
:1002D00002AD039718F8002012B96854491CC9B23E
:1002E000401C80B20828F5D33770B8460121307819
:1002F000FFF796FF012000F015FB404686F80180CD
:1003000017E02F5C384600F03BFE78B1384600F02D
:1003100019FE58B110483178C43000EB011030F8A4
:100320001710B07829F81010401CB0707078401C7D
:100330007070C0B2A042E4D300213078FFF770FFA4
:100340003078401CC0B230701028CFD3BDE8FF8792
:10035000020202020202020240000020FEE7704791
:100360000907090E002806DA00F00F0000F1E0206E
:1003700080F8141D704700F1E02080F800147047E9
:100380007047704710B500F0D5FA094C60684FF41B
:100390007A71B0FBF1F201FB120020B9002000F0ED
:1003A00021FC002060606068401C606010BD00009F
:1003B00000000020134882B0016841F47001016020
:1003C0001148016841F001010160416841F080017C
:1003D0004160002344F620610093009A521C009271
:1003E0008A42FAD34360C3620168084A114001603F
:1003F0004FF41F018160016821F48021016002B087
:1004000001F00EB888ED00E000100240FFFFF6FE9C
:1004100010B50C4C0A49204601F093F800280DD085
:100420000521204601F082F8002807D0204601F07F
:1004300075F8BDE81040C0B200F064BA10BD00000D
:10044000050305000038014001F020BBFEE702E093
:1004500008C8121F08C1002AFAD17047704700204F
:1004600001E001C1121F002AFBD17047016E4968EB
:1004700049881180006E40687047016E09680978EC
:100480001180006E0068704770B50446C07C00257E
:1004900030B1A16E0022606BCB6A11469847E574BB
:1004A000A078032804D1606E016909B1204688470D
:1004B000207D012802D0032808D008E004212175FE
:1004C000A16E20468A6A0021904700E02575607879
:1004D000002804D0A06EC16820468847657070BDB2
:1004E00070B5044680780D46032804D1606E4269D9
:1004F0000AB120469047207D02280BD0042808D15D
:1005000005EB450004EB80000023C36103844384B2
:10051000237570BD2046BDE8704001F02AB870B563
:100520000446806E00221146036B04F10B00054661
:100530009847082817D1E07A10F0600004D02028EE
:1005400007D040280FD109E02946204601F0ACFB36
:1005500008E02946204601F025F803E02946204618
:1005600001F0B2FB20B12046BDE8704001F00DB8AB
:10057000B4F8110060B1E07A000620460DD50121E3
:100580000175038F426BBDE87040002101F0FCB89B
:100590002046BDE8704000F0ECBF02210175816E7D
:1005A0008A6ABDE870400021104770B5044608789B
:1005B0000E4610F0030004D001282BD0022829D1C8
:1005C0000AE0A078022801D0032823D14888012816
:1005D00020D1002020721BE03579A078032819D1A2
:1005E00005F07F00022815D2708898B995B1802D4A
:1005F00010D02946204601F016FA58B1A26E2046C6
:100600002946926B9047606E3146C26820469047FB
:10061000002070BD012070BD10B581780122022933
:1006200002D003290BD107E0017841B9002201244F
:1006300040630487448702E001780029F6D1104620
:1006400010BD00002DE9F041054600F130040878A6
:1006500001270E4610F0030002D0012837D131E007
:10066000708805F13802030AC1B2102B2FD2DFE8DF
:1006700003F02E0813162E2E2E2E2E2E2E2E2E2E5C
:100680002E1D1F480368284698476060F088402860
:100690001DD1082020811CE01948436803E0EF29A0
:1006A00015D2174883682846984709E0286E806865
:1006B00020B140882081286E806801E000202081E0
:1006C000606004E0686EC26828469047074620894B
:1006D00098B1F08888B12189814200D208462081F2
:1006E000B5F81110884207D22188B0FBF1F201FB66
:1006F000120008B90120E87400273846BDE8F081EF
:100700008802002010B58378012B07D0022B05D07A
:10071000032B03D1097911F0FF0F01D0012010BD87
:10072000436E01215B1C436301874187002010BD9C
:1007300010B50B79097801221F4C11F0030104D088
:1007400001291BD0022922D11EE08178022901D083
:1007500003291CD10279002112B10122227000E08C
:100760002170027AFAB1217841F0020121E00022E1
:10077000114C022344630387438708E081780329EF
:1007800005D1002BF3D002E08178032901D0104677
:1007900010BD190608D503F07F0101EB410100EB04
:1007A000810191F8321004E003EB430100EB810179
:1007B000897E2170DBE70000510200200120704794
:1007C0008A887AB9CA886AB9897801F07F0141704C
:1007D0008278032A06D009B1022100E0012181704C
:1007E000002070470120704770B5194D0446897884
:1007F00001202970012915D8A278012A12D0022AD5
:1008000006D0032A0ED171B12078884214D108E0B5
:1008100039B1606E426820469047287820700320E6
:1008200008E0002070BD606E8268204690472878FE
:1008300020700220A070F4E7616E8A6801462046AD
:10084000904729782170606E426820469047E8E71B
:10085000500200200020704770B5044608780E460C
:1008600010F0030004D001282AD0022828D109E082
:10087000A078022801D0032822D1488801281FD15E
:1008800020721BE03579A078032819D105F07F008C
:10089000022815D2708898B995B1802D10D02946BC
:1008A000204601F0C0F858B1A26E20462946526B8E
:1008B0009047606E3146C26820469047002070BD68
:1008C000012070BD10B58278012A07D0022A05D018
:1008D000032A03D10A7912F0FF0F01D0012010BDC5
:1008E000436E8A785A70426ED2689047002010BDDD
:1008F00000207047006EC06850F821000178118018
:100900007047000010B5064C0146204600F00AFE74
:100910000721204600F00AFE0028F9D010BD000093
:10092000003801400249086008680028FCD170477F
:100930001000002003480168002902D00168491E08
:100940000160704710000020F0B5184D2B688343FC
:100950002B602E1D336883433360331D1C68844332
:100960001C601C1D27688743276011B1012907D12E
:1009700003E029680143296002E0316801433160E6
:1009800052B1012A0ED0022A05D11968014319601B
:10099000216801432160F0BD196801431960216895
:1009A0008143F7E719688143F1E700000004014043
:1009B00001490860704700001404014006490A68B4
:1009C00006490242096801EA000102D009B101208A
:1009D00070470020704700001404014000040140EB
:1009E0002DE9F05F40F2036000F0CAFC40F20260C3
:1009F00000F0C6FC40F2046000F0C2FC4FF4C0609E
:100A000000F0BEFC674D082303224821284600F071
:100A100033F9102303224821284600F02DF9202322
:100A200003224821284600F027F9402303224821C9
:100A3000284600F021F9802303224821284600F0AF
:100A40001BF9594E102303224821304600F014F9B7
:100A5000202303224821304600F00EF9534F012392
:100A600003224821384600F007F90223032210210F
:100A7000384600F001F9042303221021384600F023
:100A8000FBF84FF48068434603221021384600F0FB
:100A9000F3F84FF400694B4603221021384600F06A
:100AA000EBF84FF4805A534603221021384600F0E9
:100AB000E3F86B1403221021384600F0DDF84FF400
:100AC000804303221021384600F0D6F84FF400434B
:100AD00003221021384600F0CFF8402303221021D2
:100AE000304600F0C9F8802303221021304600F080
:100AF000C3F8AC15234603221021304600F0BCF8A1
:100B00004FF4007B5B4603221021304600F0B4F81E
:100B1000234603221021284600F0AEF85B4603224C
:100B20001021284600F0A8F8434603221021284649
:100B300000F0A2F84B4603221021284600F09CF852
:100B4000534603221021304600F096F80823032272
:100B50001021384600F090F810230322182138465F
:100B600000F08AF800220221172000F0D3FA0821B1
:100B7000012000F055F8022200212046FFF7E4FE94
:100B80002046FFF715FF0020094A0346FF2400EB2B
:100B90004001401C5454114408284B708B70F6DB04
:100BA000BDE8F09F0008014000100140000C01402A
:100BB000240500200449044A083A51F8201052F84C
:100BC0002000016170470000380000200449044AF9
:100BD000083A51F8201052F8200041617047000097
:100BE0003800002070B50A4E0446A6F1080556F8F4
:100BF000241055F8240000F08FF8C0F10100C2B2B3
:100C000056F8241055F82400BDE8704000F002B8F2
:100C1000380000200AB1016170474161704700004F
:100C20008A07130F10B50F229A40124C98400429DE
:100C300006D2A1689143A160A1680143A16010BDE3
:100C4000082906D2E1689143E160E1680143E1606F
:100C500010BD0C2906D2216991432161216901430C
:100C6000216110BD61699143616161690143616105
:100C700010BD0000000001402DE9F04301F00F0419
:100C8000CD0602D5042A18D0144300224FF00F09D4
:100C90004FF0010808FA02F51D4019D007689600C8
:100CA00009FA06FC27EA0C0704FA06FC4CEA070CD2
:100CB000282908D0482908D008E0C26B44F0030472
:100CC0001A43C263E1E7456100E00561C0F800C076
:100CD000521C92B2082ADDD3082208FA02F51D4000
:100CE00014D047689600203E09FA06FC27EA0C0754
:100CF00004FA06FC4CEA070C282902D0482902D045
:100D000002E0456100E00561C0F804C0521C92B2E7
:100D1000102AE2D3BDE8F0838068084000D00120AB
:100D200070470000F0B5144C002801DAE36900E0D8
:100D30006368450D2E0185B2C0F30157B540C0F37D
:100D40000342032F05D0C6020AD503269640B343BB
:100D500007E023F0E062636823F0E063636002E091
:100D6000AB4343F0E06201B12A43002801DAE261BB
:100D7000F0BD6260F0BD000000000140C26E917ADB
:100D800031B1002191720D238121083200F0FCBCA9
:100D900001205075704710B5826E8121526A9047CC
:100DA000002010BD70B5044618210C48FFF7E5F986
:100DB000A56E002120462D6A5022094BA8470848FD
:100DC000113001218069E06504484175E066206FBB
:100DD00008B100688047002070BD00003C0500207D
:100DE000C302002011B10167002070470220704744
:100DF00070B5C46E0546607D002833D01A4A0420C1
:100E0000A072D070052010710620507107209071DB
:100E10000820D0710920107200216318505C491C11
:100E200018720929F9DB207A00281BD00E4901200D
:100E3000891E0922088004F108010E46284600F0A8
:100E400015F80120FFF76EFD0020E072207360733B
:100E5000A073E073207431462846BDE87040092233
:100E600000F004B870BD00001A00002010B5134651
:100E7000C26E002454750A46812100F085FC0020D2
:100E800010BD000030B502464C78D36E01203032E0
:100E90000C2C18D2DFE804F01717060A17171817DA
:100EA00017171014012100201B1D01E00121002053
:100EB00053601181508105E04888000A586001E0C4
:100EC00088781860002030BD4B882224B4EB132FA3
:100ED00009D1C8880B4BB02800D9B020536000213D
:100EE00010815181EEE72124B4EB132FEBD1C98897
:100EF000054B092900D9092153600024118154812F
:100F000030BD0000DC1C0008BA020020F0B5002350
:100F10000A24302537261F4610E0B4EB107F02D993
:100F200005EB107C01E006EB107C01F813C001EB2F
:100F3000430C00015B1C8CF80170DBB29342ECD3D4
:100F4000F0BD704710B5044600F01AF80B4B04EBE7
:100F5000440219469C5C114484420BD14878FF2816
:100F600001D2401C4870C0B2032801D3985C88703D
:100F7000887810BD985400204870F9E724050020B7
:100F80000449044A203A51F8201052F82000FFF793
:100F9000C3BE0000E400002010B5102000F0D4F91A
:100FA000112000F0C1F90028FAD0182000F0CCF987
:100FB000192000F0B9F90028FAD0022000F0EEF96B
:100FC00000F0F6F90828FBD1042000F07FFA40F287
:100FD0001774204600F0C6F9002000F0F9F80E4919
:100FE000884202D14FF480000FE00C49884201D1C1
:100FF00000200AE00A49884202D14FF4400004E090
:101000000849884203D14FF4000000F0D9F9204686
:10101000BDE8104000F0B4B9006CDC0200A24A0444
:1010200000D8B805000E2707002000F0C7F800F030
:1010300055FA4FF4C06000F0A3F94FF47A70FFF74F
:1010400071FC01212348FFF76DFE40F2036000F0C0
:1010500097F940F2046000F093F9FFF7C1FC00F04B
:1010600033F91D491D48FFF7BDFE1D4A1D491B48A8
:1010700000F0DCFC00F03CF818480521817000F11C
:10108000780481780329FCD1174D184E124F0120A6
:10109000FFF790FD15491148891C7830FFF7F0F8EB
:1010A000208878B10020728804E014F810102B1802
:1010B000401CD9709042F8DB7968084888470A20BC
:1010C000FFF730FC0120FFF781FDC820FFF72AFC65
:1010D000DDE700000001300024000020A004002013
:1010E000D4020020900400201A00002000000020FC
:1010F00010B54FF4C06000F057F800220121142011
:1011000000F008F80022BDE8104011462A2000F047
:1011100001B8000070B5054622480E46002401685B
:101120002346C1F3022107291AD00168C1F3022125
:10113000062917D00168C1F3022105290DD00168E5
:10114000C1F30221042910D00068C0F30220032853
:101150000ED04FF4A06000F027F80224234608E0E8
:10116000042306E00124032303E00324012300E019
:101170000424C4F104008640C3F104010F20C840D8
:101180001040304305F1E021000181F8000405F032
:101190001F01012088406909890001F1E021C1F89F
:1011A000000170BD0CED00E00249084302490860EF
:1011B000704700000000FA050CED00E0034A51689A
:1011C00021F0F0010143516070470000001002401F
:1011D00070B536A188B036C98DE8360034A1374CD9
:1011E000D1E90021CDE9042131A10346D1E9002153
:1011F000CDE9062161680020314AC1F3810179B34C
:1012000001292DD002292BD16168551001F48031BC
:10121000B1F5803F0AD1E16A11F0804F00D0294A30
:10122000616801F40031B1F5003F00D12A466168E0
:101230006568C1F383412D0101D541F01001656856
:101240006D0001D541F020010F2901D2891C06E073
:10125000A1F10F052F2D01D8491C00E03F214A4381
:1012600061686568C1F303111DF8011022FA01F1EC
:10127000C5F3022504AE6468755D21FA05F5C4F373
:10128000C22406AE345D21FA04F443B1012B08D028
:10129000022B08D0032B00D1204608B070BD1046A9
:1012A000FBE70846F9E72846F7E7000000000000E2
:1012B00000000000010203040607080900100240B4
:1012C00000127A00006CDC0210B50020FFF780FFEE
:1012D00004464FF4C16000F053F80F48844202D135
:1012E0004FF480000FE00D48844201D100200AE055
:1012F0000B48844202D14FF4400004E00948844284
:1013000003D14FF4000000F05BF8BDE8104040F25C
:10131000177000F035B80000006CDC0200A24A042F
:1013200000D8B805000E2707064A02EB901109689D
:1013300000F01F0201209040014201D001207047BF
:101340000020704700100240054901EB90110A6827
:1013500000F01F030120984002430A60704700001C
:1013600000100240054901EB90110A6800F01F03CC
:101370000120984082430A6070470000001002403C
:10138000054901EB90110A6800F01F030120984005
:1013900002430A607047000000100240034A51688F
:1013A00021F003010143516070470000001002402A
:1013B0000248406800F00C00704700000010024036
:1013C000034A516821F44001014351607047000015
:1013D0000010024070B504460078062813D00E486D
:1013E0000168001D0568001D0068081813D0082258
:1013F000A11CFFF78BFD04F112012846BDE87040E7
:101400000422FFF783BD0548D0F80001002802D070
:101410006080000CA08070BDE8F7FF1F0020024034
:1014200026480021026842F0010202604FF4A063E6
:101430000268491C12F0020F01D19942F8D10168EB
:10144000890700D4FEE7C16941F08051C1611C49A0
:101450000A6842F440420A60426842604268426060
:10146000426842F4806242604268164B1A40426011
:101470004268154B1A434260026842F08072026073
:1014800002689201FCD50A6842F480320A604A6818
:10149000D203FCD50A6842F400320A604A6892031B
:1014A000FCD5416821F003014160416841F002012F
:1014B000416041680907FCD57047000000100240F8
:1014C00000700040FFFFC3B70000340802490A68FB
:1014D00082430A607047000010ED00E070B50E48CE
:1014E0004FF47A710068B0FBF1F0401EB0F1807FDC
:1014F00011D24FF0E024606165170F212846FEF7F6
:101500002FFF0020A061072020612846BDE8704021
:101510000021FEF725BFFEE7140000204068C0F35D
:1015200008007047C1F308014160704700EB91105B
:10153000006801F01F0201219140084000D0012005
:10154000704730B5C1F38912825800EB915001F019
:101550001F05012404FA05F300681A40C1F3044191
:1015600004FA01F3184202D00AB1012030BD002074
:1015700030BD30B403210175436B806E00221146EB
:10158000C46A1846A44630BC6047826E0021526B84
:10159000104700004078024940F080000860704722
:1015A0004C5C00408278032A03D10A7912F0FF0FC5
:1015B00001D001207047426ED268104707480121D0
:1015C000016000210160021D1160044A10321160A7
:1015D000016841F41F41016070470000405C004019
:1015E0000448012101600021021D116003210160F6
:1015F00070470000405C00407047000030B5144B5D
:10160000144D002403EB01131AB1012A06D0002067
:1016100030BDD968C1F3090299680AE00E4A02EBAD
:101620008101D1F8001C4906F3D55968C1F30902BC
:101630001968531C05EB410105E031F8045B641C9B
:1016400020F8025BA4B2B4EB530FF6D3104630BDC2
:10165000006000400060004000500040F0B5104BBA
:1016600003EB01166AB133680E4C04EB430300240C
:10167000551C03E030F8027B641C80C3B4EB550FAB
:10168000F8D37260084800EB8100D0F8001C48F6DF
:10169000BF72114081F03001C0F8001CF0BD0000A5
:1016A000006000400060004000500040CB094FEA5D
:1016B0004160134948F68F7201EBD050D0F8001CFE
:1016C0000DD0490606D5D0F8001C114041F040016C
:1016D000C0F8001CD0F8001C48F6BF720CE04904AA
:1016E00006D5D0F8001C114041F48041C0F8001C20
:1016F000D0F8001C4BF68F721140C0F8001C7047E8
:101700000050004030B5154920220A6000224A608E
:10171000402202868A60028348F2FF72CA60104B40
:10172000012148F68F7503EB8102D2F8004CAC43DF
:101730000C43C2F8004C491CC9B20229F3D3094931
:101740000A6892B20A6043F220220A60054A8021A8
:101750004C3211600121817030BD000000600040FA
:1017600000500040005C00404806C10D0548084498
:10177000D0F8001C4BF68F72114081F44051C0F834
:10178000001C7047005000402DE9F041174601F061
:101790007F0101EB410200EB82051E4635F8304F18
:1017A000B44200D91C46806E2246C36A3846984728
:1017B0003919301B696028816C81BDE8F081000017
:1017C0002DE9F04F9E789D88DB784A4F03F00303A4
:1017D00006F07F0457F82370474B274303EB84033D
:1017E000C3F8007C5FEAD618444E04EB440848F680
:1017F000BF7948F68F7B1FFA82FC4FEA12474BF6FF
:101800008F7A00EB880024D00586F1B101291AD126
:10181000D3F8000C40F4807000EA0B00C3F8000C11
:1018200006EB0410C0F800C08760D3F8000C00EA93
:10183000090080F03000C3F8000CD3F8000C00EA77
:101840000A00C3F8000CBDE8F08F06EB041002603C
:1018500042E005834FF0FF3811B101290AD002E0C0
:1018600006EB041082603E2D26D908EB451040F4AB
:10187000004025E0D3F8000C40F4807202EA0B022D
:10188000C3F8002CD3F8002C02EA0B0242F040000F
:10189000C3F8000C06EB0410C0F800C087603E2DB2
:1018A00005D908EB451242F400424260DDE76A1CAC
:1018B00022F00102520242606D1C25F0010040023C
:1018C00006EB0412D06071B10129BCD1D3F8000C31
:1018D00000EA0A00C3F8000CD3F8000C00EA090083
:1018E00080F02000ADE7D3F8000C00EA0A0080F495
:1018F0000050A6E7CC1C00080050004000600040EB
:101900002DE9F04101F07F0202EB420400EB840577
:101910001E4CCB094FF0000648F68F7704EB82048B
:1019200018D000F07DF810282ED1D4F8000C400615
:1019300006D5D4F8000C384040F04000C4F8000C44
:1019400085F83260D4F8000C48F6BF71084080F08A
:10195000300017E000F064F8B0F5805F14D1D4F8DF
:10196000000C400406D5D4F8000C384040F4804008
:10197000C4F8000CAE76D4F8000C4BF68F7108401A
:1019800080F44050C4F8000CBDE8F08100500040E5
:1019900070B511F07F0F48F6BF734BF68F7415D0FA
:1019A000CD0901F07F0101EB410200EB82024FEA19
:1019B000810011494FF00106084413D082F83260CB
:1019C000D0F8001C194081F0100111E00B480168AB
:1019D000194081F0100101600168214081F48051BB
:1019E000016070BD9676D0F8001C214081F48051D2
:1019F000C0F8001C70BD000000500040005C0040BA
:101A0000064A480602EBD050D0F8000CC90902D0B3
:101A100000F03000704700F4405070470050004024
:101A2000826ED26B1047826ED26B104770B504463F
:101A3000114808230370012343705D024580446010
:101A40000E482166C4E91920002222750C4AA264BE
:101A50000C4AE2640C4A226549680222C97902EA0A
:101A600051112171E37100688047206EC068C06821
:101A7000BDE87040FFF7AEBC440200200402002025
:101A80001F050008E1040008890400082DE9FC5F37
:101A9000714F3868ADF80400386800F47F40ADF845
:101AA0000000A7F10409D9F80000BDF800100140BA
:101AB000ADF8001069484468BDF800004FF0000B15
:101AC000000463D5DFF898A13868ADF8040000047D
:101AD0005CD5BDF8040000F00F06BDF80400C00698
:101AE0000AEB8600D0F8001C34D50904ECD5D0F8F8
:101AF000001C40F68F721140C0F8001CD0F8000C9A
:101B0000000504D5002E7DD15946A26C1FE0A16EC0
:101B100006EB460004EB80080B6B08F11805D8F8BB
:101B20001C00002231469847696801446960698950
:101B3000014489B269812A89914202D2298881426D
:101B400002D9D8F84C201DE0A06E826A1CE0204625
:101B50009047B9E70906B7D5D0F8001C48F60F72D0
:101B60001140C0F8001C06EB460004EB800101F1B7
:101B700030000B8F2BB1426831462046FFF704FE40
:101B8000A2E70A6D002A9FD03146E0E7BDF80000C9
:101B9000C00409D56FF480503860E078A070607A96
:101BA00010B9A06E40698047BDF800004FF00305F2
:101BB000000511D5D9F80000C0060DD4A078E0705A
:101BC0000420A070E07918B1A06E0069804700E0A1
:101BD000A5716FF400603860BDF80000800508D57D
:101BE0006FF4007038601F48006810B1016820462B
:101BF0008847BDF80000C0051DD56FF480703860BF
:101C0000A07900E025E0B0B1401E10F0FF00A07107
:101C100011D1607AD9F800100028484605D021F08B
:101C20001001016084F809B005E041F01001016085
:101C3000A57101206072BDF80000400509D56FF460
:101C400080603860A06EC16902B02046BDE8F05FD8
:101C50000847BDE8FC9F0000445C004044020020AF
:101C6000005000404C02002010B5064C206820F0C7
:101C700004002060FFF790F9206820F00800206041
:101C800010BD0000405C004005484068007A012813
:101C900004D10448016841F0100101607047000060
:101CA00044020020405C00404A78024B53F8222056
:101CB00010470000540200200248016841F00C0166
:101CC00001607047405C0040012070470002000046
:101CD00000040000000000000006000005010906E5
:101CE000A1018501050719E029E715002501750106
:101CF0009508810295017508810395057501050810
:101D0000190129059102950175039103950675083E
:101D1000150025650507190029658100C0050C0916
:101D200001A10185021500250109E909EA09E20975
:101D3000CD09B109B509B609B7750195088102C089
:101D400005010902A10185030901A1000509190185
:101D5000290315002501950375018102950175057B
:101D6000810105010930093109381581257F750880
:101D700095038106C0093C05FF0901150025017581
:101D8000019502B12275069501B101C0AC1D000894
:101D900000000020A0040000B4010008B01F0008EB
:101DA000A0040020B80400005E0400080115240E01
:101DB0002707920113430F1408F10D1608030604B8
:101DC00006140C0140451001400872102914091A2C
:101DD000041930B904CA08043202420429052959F9
:101DE0002958322032407A80074993292D690869A1
:101DF00030D9503904696C19800911537910294B75
:101E00001A3F491235121C12131207120A1A05241E
:101E10001216122D12181A2F5D120B12111A4118D8
:101E2000122E1212123012091A343A1A42081205EE
:101E3000120C323114FFFF361243122B12061250CD
:101E4000124F1A52101251124412141A0D0A3CFF6A
:101E5000FF4C061245121A3A0E0A29011A390A12C3
:101E6000087A0F101A760A121512337A2A1214FF02
:101E7000FF171A370E5AFE0E121D122C7A381E1436
:101E8000E8031B1A3AB8892E1206123B9A02101266
:101E900019123C1A03105AFA1012281A3DE289202E
:101EA00012297A3E0E23F8FF13BD151B08E1041A10
:101EB000F9041A950413B91C1B0869041A89041340
:101EC00005171B08C1041BAD161419081A5D081A62
:101ED000FD241391192B080104121A021008133162
:101EE000071408AB051B08BD084B5908081AC104A4
:101EF0001345061B0855101A19081AE9101A05048B
:101F00001AC5101AF104137B041B086D041AF50C92
:101F10001B1201CF211640E928800326010102038C
:101F2000011C0902220B1125A03209041B01030B1D
:101F30001509211101140122B016070581030D199D
:101F400024C113A50D1B0897048B850EA01A7D10C4
:101F5000411008040309041603471269126712614D
:101F6000124412651A760C1A6308016C1A24821244
:101F70004412331232122D125512531242125F1AAA
:101F80004B84127912621A6F981272025F64038294
:101F90001A0313F4021B20F804137A031B20FC0419
:101FA0001A940C1AA80441138004020020000000B7
:0400000508000131BD
:00000001FF
