:020000040800F2
:10000000B0060020490100083B030008590200081F
:10001000390300081D020008290400080000000040
:100020000000000000000000000000005F03000866
:100030001F020008000000005D03000861030008C3
:100040006301000863010008630100086301000800
:1000500063010008630100086301000863010008F0
:1000600063010008630100086301000863010008E0
:1000700063010008630100086301000863010008D0
:1000800063010008630100086301000863010008C0
:10009000250400086301000863010008210200082C
:1000A00063010008630100086301000863010008A0
:1000B0006301000863010008630100086301000890
:1000C0006301000863010008630100086301000880
:1000D00063010008ED0300086301000863010008E4
:1000E0006301000863010008630100086301000860
:1000F0006301000863010008630100086301000850
:10010000630100086301000863010008630100083F
:10011000630100086301000863010008630100082F
:10012000630100086301000863010008630100081F
:10013000DFF810D000F01AF800480047A9090008BD
:10014000AFF30080B006002006488047064800470D
:10015000FEE7FEE7FEE7FEE7FEE7FEE7FEE7FEE777
:10016000FEE7FEE79103000831010008064C074D49
:1001700006E0E06840F0010394E807009847103477
:10018000AC42F6D3FFF7D8FF6C0E00088C0E0008C7
:1001900070B58C1810F8015B15F0070301D110F849
:1001A000013B2A1106D110F8012B03E010F8016B76
:1001B00001F8016B5B1EF9D12B0705D40023521EF9
:1001C0000DD401F8013BFAE710F8013BCB1A921C61
:1001D00003E013F8015B01F8015B521EF9D5A1425F
:1001E000D8D3002070BD70B505460024E0B2294682
:1001F00000F004F8641C102CF8DB70BD09B101227A
:1002000000E000220449044B403B51F8201053F811
:10021000200000F0A1BA000084000020FEE7704733
:1002200010B54FF48074204600F06AF900280ED013
:10023000204600F05FF9012000F016F9214604483D
:1002400000F00CFB002802D102490120087010BD0B
:10025000000C014000000020FEE700002DE9FF47F0
:10026000814632A00024D0E90010CDE90010314EC3
:1002700027462046B47074703470FFF7B4FF77706F
:10028000E846707800F084FB717808F8010020449B
:1002900084B2491CC8B270700828F2D3082C43D22B
:1002A000C4F10800C4B200210297084602AD0397CA
:1002B00018F8002012B96854491CC9B2401C80B219
:1002C0000828F5D33770B84601213078FFF796FF3C
:1002D000012000F0C9F8404686F8018017E02F5C45
:1002E000384600F055FB78B1384600F033FB58B182
:1002F00010483178C43000EB011030F81710B07896
:1003000029F81010401CB0707078401C7070C0B29A
:10031000A042E4D300213078FFF770FF3078401C12
:10032000C0B230701028CFD3BDE8FF8702020202AE
:100330000202020240000020FEE770470907090E92
:10034000002806DA00F00F0000F1E02080F8141D0C
:10035000704700F1E02080F8001470477047704744
:1003600010B500F089F8094C60684FF47A71B0FB61
:10037000F1F201FB120020B9002000F0D5F90020B5
:1003800060606068401C606010BD000000000020DC
:10039000134882B0016841F470010160114801689E
:1003A00041F001010160416841F08001416000239A
:1003B00044F620610093009A521C00928A42FAD3BC
:1003C0004360C3620168084A114001604FF41F0195
:1003D0008160016821F48021016002B000F09CBBC3
:1003E00088ED00E000100240FFFFF6FE10B50C4C57
:1003F0000A49204600F019FC00280DD005212046AE
:1004000000F008FC002807D0204600F0FBFBBDE808
:100410001040C0B200F018B810BD00000503050080
:100420000038014000F034BCFEE702E008C8121FAB
:1004300008C1002AFAD170477047002001E001C1CD
:10044000121F002AFBD1704710B5064C014620460A
:1004500000F0DCFB0721204600F0DCFB0028F9D08F
:1004600010BD0000003801400249086008680028FB
:10047000FCD170471000002003480168002902D019
:100480000168491E0160704710000020F0B5184D4A
:100490002B6883432B602E1D336883433360331DE9
:1004A0001C6884431C601C1D27688743276011B1AA
:1004B000012907D103E029680143296002E031687E
:1004C0000143316052B1012A0ED0022A05D11968C8
:1004D00001431960216801432160F0BD196801439F
:1004E000196021688143F7E719688143F1E700004B
:1004F00000040140014908607047000014040140F5
:1005000006490A6806490242096801EA000102D068
:1005100009B1012070470020704700001404014019
:10052000000401402DE9F05F40F2036000F0E6FABC
:1005300040F2026000F0E2FA40F2046000F0DEFAFD
:100540004FF4C06000F0DAFA674D08230322482117
:10055000284600F033F9102303224821284600F0F2
:100560002DF9202303224821284600F027F94023B3
:1005700003224821284600F021F980230322482144
:10058000284600F01BF9594E10230322482130461B
:1005900000F014F9202303224821304600F00EF920
:1005A000534F012303224821384600F007F9022364
:1005B00003221021384600F001F904230322102100
:1005C000384600F0FBF84FF48068434603221021C0
:1005D000384600F0F3F84FF400694B46032210212F
:1005E000384600F0EBF84FF4805A534603221021AE
:1005F000384600F0E3F86B1403221021384600F06F
:10060000DDF84FF4804303221021384600F0D6F87D
:100610004FF4004303221021384600F0CFF8402366
:1006200003221021304600F0C9F880230322102154
:10063000304600F0C3F8AC152346032210213046A3
:1006400000F0BCF84FF4007B5B46032210213046DB
:1006500000F0B4F8234603221021284600F0AEF83B
:100660005B4603221021284600F0A8F843460322E7
:100670001021284600F0A2F84B46032210212846FC
:1006800000F09CF8534603221021304600F096F803
:10069000082303221021384600F090F8102303228B
:1006A0001821384600F08AF800220221172000F0B5
:1006B000C7F90821012000F055F802220021204648
:1006C000FFF7E4FE2046FFF715FF0020094A034626
:1006D000FF2400EB4001401C5454114408284B7087
:1006E0008B70F6DBBDE8F09F000801400010014070
:1006F000000C0140940200200449044A083A51F8D1
:10070000201052F8200001617047000038000020DE
:100710000449044A083A51F8201052F82000416177
:10072000704700003800002070B50A4E0446A6F15C
:10073000080556F8241055F8240000F08FF8C0F191
:100740000100C2B256F8241055F82400BDE87040EC
:1007500000F002B8380000200AB101617047416121
:10076000704700008A07130F10B50F229A40124CF1
:100770009840042906D2A1689143A160A168014371
:10078000A16010BD082906D2E1689143E160E168EB
:100790000143E16010BD0C2906D22169914321611A
:1007A00021690143216110BD616991436161616902
:1007B0000143616110BD0000000001402DE9F043DC
:1007C00001F00F04CD0602D5042A18D014430022EC
:1007D0004FF00F094FF0010808FA02F51D4019D03B
:1007E0000768960009FA06FC27EA0C0704FA06FCDB
:1007F0004CEA070C282908D0482908D008E0C26B29
:1008000044F003041A43C263E1E7456100E0056177
:10081000C0F800C0521C92B2082ADDD3082208FAA0
:1008200002F51D4014D047689600203E09FA06FCE8
:1008300027EA0C0704FA06FC4CEA070C282902D028
:10084000482902D002E0456100E00561C0F804C01B
:10085000521C92B2102AE2D3BDE8F08380680840AF
:1008600000D0012070470000F0B5144C002801DAD8
:10087000E36900E06368450D2E0185B2C0F30157BE
:10088000B540C0F30342032F05D0C6020AD50326A4
:100890009640B34307E023F0E062636823F0E0632F
:1008A000636002E0AB4343F0E06201B12A430028F9
:1008B00001DAE261F0BD6260F0BD000000000140BD
:1008C00070B5C46E0546607D002833D01A4A0420F6
:1008D000A072D07005201071062050710720907111
:1008E0000820D0710920107200216318505C491C47
:1008F00018720929F9DB207A00281BD00E49012043
:10090000891E0922088004F108010E46284600F0DD
:1009100015F80120FFF7A8FD0020E0722073607336
:10092000A073E073207431462846BDE87040092268
:1009300000F004B870BD00001A00002010B5134686
:10094000C26E002454750A46812100F086F9002009
:1009500010BD704710B5044600F01AF80B4B04EBBD
:10096000440219469C5C114484420BD14878FF280C
:1009700001D2401C4870C0B20A2801D3985C88702C
:10098000887810BD985400204870F9E79402002040
:100990000449044A203A51F8201052F82000FFF789
:1009A0005DBF0000E4000020002000F09DF800F092
:1009B00009F94FF4C06000F0A1F84FF47A70FFF726
:1009C00053FD01211948FFF74FFF40F2036000F08B
:1009D00095F840F2046000F091F8FFF7A3FD144C85
:1009E000144D154E154F0120FFF786FE1249104891
:1009F000891CFFF733FC208880B10020728804E056
:100A000014F810102B18401CD9709042F8DB0848DD
:100A10007968783888470A20FFF726FD0120FFF71C
:100A200077FEC820FFF720FDDDE700000001300061
:100A3000880200201A00002000000020240000206E
:100A400070B5054622480E46002401682346C1F3CE
:100A5000022107291AD00168C1F30221062917D003
:100A60000168C1F3022105290DD00168C1F30221FB
:100A7000042910D00068C0F3022003280ED04FF4E0
:100A8000A06000F027F80224234608E0042306E0D3
:100A90000124032303E00324012300E00424C4F120
:100AA00004008640C3F104010F20C84010403043C9
:100AB00005F1E021000181F8000405F01F0101208B
:100AC00088406909890001F1E021C1F8000170BD89
:100AD0000CED00E00249084302490860704700003D
:100AE0000000FA050CED00E0034A516821F0F00126
:100AF000014351607047000000100240054901EBBE
:100B000090110A6800F01F030120984002430A6018
:100B1000704700000010024026480021026842F0A1
:100B2000010202604FF4A0630268491C12F0020F38
:100B300001D19942F8D10168890700D4FEE7C16963
:100B400041F08051C1611C490A6842F440420A6088
:100B50004268426042684260426842F48062426099
:100B60004268164B1A4042604268154B1A43426075
:100B7000026842F08072026002689201FCD50A6845
:100B800042F480320A604A68D203FCD50A6842F413
:100B900000320A604A689203FCD5416821F00301E3
:100BA0004160416841F00201416041680907FCD59C
:100BB000704700000010024000700040FFFFC3B704
:100BC0000000340870B50E484FF47A710068B0FB2D
:100BD000F1F0401EB0F1807F11D24FF0E02460614F
:100BE00065170F212846FFF7A9FB0020A061072009
:100BF00020612846BDE870400021FFF79FBBFEE75B
:100C0000140000204068C0F308007047C1F30801D9
:100C10004160704700EB9110006801F01F02012154
:100C20009140084000D00120704730B5C1F38912CF
:100C3000825800EB915001F01F05012404FA05F3DE
:100C400000681A40C1F3044104FA01F3184202D0CB
:100C50000AB1012030BD002030BD2DE9F04117461A
:100C600001F07F0101EB410200EB82051E4635F8E1
:100C7000304FB44200D91C46806E2246C36A3846C3
:100C800098473919301B696028816C81BDE8F08173
:100C90002DE9FC5F714F3868ADF80400386800F446
:100CA0007F40ADF80000A7F10409D9F80000BDF8B5
:100CB00000100140ADF8001069484468BDF800001C
:100CC0004FF0000B000463D5DFF898A13868ADF849
:100CD000040000045CD5BDF8040000F00F06BDF868
:100CE0000400C0060AEB8600D0F8001C34D50904C5
:100CF000ECD5D0F8001C40F68F721140C0F8001CF3
:100D0000D0F8000C000504D5002E7DD15946A26C08
:100D10001FE0A16E06EB460004EB80080B6B08F1A8
:100D20001805D8F81C00002231469847696801442C
:100D300069606989014489B269812A89914202D234
:100D40002988814202D9D8F84C201DE0A06E826A21
:100D50001CE020469047B9E70906B7D5D0F8001C3B
:100D600048F60F721140C0F8001C06EB460004EB79
:100D7000800101F130000B8F2BB1426831462046D3
:100D8000FFF76BFFA2E70A6D002A9FD03146E0E72C
:100D9000BDF80000C00409D56FF480503860E078D9
:100DA000A070607A10B9A06E40698047BDF800005D
:100DB0004FF00305000511D5D9F80000C0060DD489
:100DC000A078E0700420A070E07918B1A06E0069EE
:100DD000804700E0A5716FF400603860BDF8000046
:100DE000800508D56FF4007038601F48006810B1A6
:100DF000016820468847BDF80000C0051DD56FF486
:100E000080703860A07900E025E0B0B1401E10F09D
:100E1000FF00A07111D1607AD9F80010002848466F
:100E200005D021F01001016084F809B005E041F01F
:100E300010010160A57101206072BDF8000040053D
:100E400009D56FF480603860A06EC16902B0204699
:100E5000BDE8F05F0847BDE8FC9F0000445C00402F
:100E600004020020005000400C0200208C0E0008FC
:100E7000000000201002000090010008880F000808
:100E800010020020A00400003A0400080115240EFE
:100E9000270792011353091408C108160803060412
:100EA00006140C0140451001400872102914091A5B
:100EB000041930B904CA0804320242042905295928
:100EC0002958322032407A80074993292D690869D0
:100ED00030D9503904696C19800911537910294BA4
:100EE0001A3F491235121C12131207120A1A05244E
:100EF0001216122D12181A2F5D120B12111A411808
:100F0000122E1212123012091A343A1A420812051D
:100F1000120C323114FFFF361243122B12061250FC
:100F2000124F1A52101251124412141A0D0A3CFF99
:100F3000FF4C061245121A3A0E0A29011A390A12F2
:100F4000087A0F101A760A121512337A2A1214FF31
:100F5000FF171A370E5AFE0E121D122C7A381E1465
:100F6000E8031B1A3AB8892E1206123B9A02101295
:100F700019123C1A03105AFA1012281A3DE289205D
:080F800012297A3E0EE3F8FF8E
:0400000508000131BD
:00000001FF
