:020000040800F2
:100000003804002049010008D1010008CD01000892
:10001000CF01000891010008C102000800000000A3
:10002000000000000000000000000000F5010008D2
:100030009301000800000000F3010008F901000826
:100040006301000863010008630100086301000800
:1000500063010008630100086301000863010008F0
:1000600063010008630100086301000863010008E0
:1000700063010008630100086301000863010008D0
:1000800063010008630100086301000863010008C0
:10009000BD02000863010008630100089501000823
:1000A00063010008630100086301000863010008A0
:1000B0006301000863010008630100086301000890
:1000C0006301000863010008630100086301000880
:1000D000630100088502000863010008630100084D
:1000E0006301000863010008630100086301000860
:1000F0006301000863010008630100086301000850
:10010000630100086301000863010008630100083F
:10011000630100086301000863010008630100082F
:10012000630100086301000863010008630100081F
:10013000DFF810D000F01AF800480047C1040008AA
:10014000AFF3008038040020064880470648004787
:10015000FEE7FEE7FEE7FEE7FEE7FEE7FEE7FEE777
:10016000FEE7FEE72902000831010008064C074DB2
:1001700006E0E06840F0010394E807009847103477
:10018000AC42F6D3FFF7D8FFC4080008E408000823
:10019000FEE7704710B54FF48074204600F0C8F8B1
:1001A00000280ED0204600F0BDF8012000F0A8F88D
:1001B0002146044800F053F9002802D102490120E9
:1001C000087010BD000C014000000020FEE7FEE7B3
:1001D00070470907090E002806DA00F00F0000F149
:1001E000E02080F8141D704700F1E02080F8001432
:1001F000704770477047000010B500F089F8094C4F
:1002000060684FF47A71B0FBF1F201FB120020B983
:10021000002000F0B7F8002060606068401C60605B
:1002200010BD000000000020134882B0016841F4B6
:10023000700101601148016841F0010101604168ED
:1002400041F080014160002344F620610093009A50
:10025000521C00928A42FAD34360C3620168084A82
:10026000114001604FF41F018160016821F4802179
:10027000016002B000F07CB988ED00E0001002409F
:10028000FFFFF6FE10B50C4C0A49204600F0F9F9C4
:1002900000280DD00521204600F0E8F9002807D0FD
:1002A000204600F0DBF9BDE81040C0B200F018B8FD
:1002B00010BD0000050305000038014000F014BA2D
:1002C000FEE702E008C8121F08C1002AFAD17047F1
:1002D0007047002001E001C1121F002AFBD17047C6
:1002E00010B5064C0146204600F0BCF90721204617
:1002F00000F0BCF90028F9D010BD00000038014022
:100300000249086008680028FCD1704710000020EE
:1003100003480168002902D00168491E0160704746
:1003200010000020014908607047000014040140DB
:1003300006490A6806490242096801EA000102D03A
:1003400009B10120704700207047000014040140EB
:10035000000401400449044A083A51F8201052F8B8
:100360002000016170470000240000200449044A75
:10037000083A51F8201052F82000416170470000FF
:100380002400002070B50A4E0446A6F1080556F870
:10039000241055F8240000F062F8C0F10100C2B248
:1003A00056F8241055F82400BDE8704000F002B85B
:1003B000240000200AB101617047416170472DE9B6
:1003C000F04301F00F04CD0602D5042A18D01443DF
:1003D00000224FF00F094FF0010808FA02F51D4006
:1003E00019D00768960009FA06FC27EA0C0704FAF8
:1003F00006FC4CEA070C282908D0482908D008E058
:10040000C26B44F003041A43C263E1E7456100E0B4
:100410000561C0F800C0521C92B2082ADDD3082240
:1004200008FA02F51D4014D047689600203E09FAEC
:1004300006FC27EA0C0704FA06FC4CEA070C2829FC
:1004400002D0482902D002E0456100E00561C0F811
:1004500004C0521C92B2102AE2D3BDE8F083806837
:10046000084000D001207047F0B5144C002801DA94
:10047000E36900E06368450D2E0185B2C0F30157C2
:10048000B540C0F30342032F05D0C6020AD50326A8
:100490009640B34307E023F0E062636823F0E06333
:1004A000636002E0AB4343F0E06201B12A430028FD
:1004B00001DAE261F0BD6260F0BD000000000140C1
:1004C000002000F03DF800F0A9F84FF4C06000F003
:1004D00041F84FF47A742046FFF712FF01211548C6
:1004E000FFF7C2FF40F2036000F034F840F204600E
:1004F00000F030F80823032210210F48FFF75FFFB8
:100500004FF48053032210210C48FFF758FF0020BE
:10051000FFF720FF0120FFF71DFF2046FFF7F0FE49
:100520000020FFF723FF0120FFF720FF2046FFF701
:10053000E7FEECE700013000000C01400010014034
:10054000034A516821F0F0010143516070470000F7
:1005500000100240054901EB90110A6800F01F03EA
:100560000120984002430A607047000000100240DA
:1005700026480021026842F0010202604FF4A063A5
:100580000268491C12F0020F01D19942F8D10168AA
:10059000890700D4FEE7C16941F08051C1611C495F
:1005A0000A6842F440420A6042684260426842601F
:1005B000426842F4806242604268164B1A404260D0
:1005C0004268154B1A434260026842F08072026032
:1005D00002689201FCD50A6842F480320A604A68D7
:1005E000D203FCD50A6842F400320A604A689203DA
:1005F000FCD5416821F003014160416841F00201EE
:10060000416041680907FCD57047000000100240B6
:1006100000700040FFFFC3B70000340870B50E48FB
:100620004FF47A710068B0FBF1F0401EB0F1807FAA
:1006300011D24FF0E024606165170F212846FFF7C3
:10064000C8FD0020A061072020612846BDE8704059
:100650000021FFF7BEBDFEE7140000204068C0F394
:1006600008007047C1F308014160704700EB91102A
:10067000006801F01F0201219140084000D00120D4
:10068000704730B5C1F38912825800EB915001F0E8
:100690001F05012404FA05F300681A40C1F3044160
:1006A00004FA01F3184202D00AB1012030BD002043
:1006B00030BD2DE9F041174601F07F0101EB410209
:1006C00000EB82051E4635F8304FB44200D91C4677
:1006D000806E2246C36A384698473919301B6960D4
:1006E00028816C81BDE8F0812DE9FC5F714F38688D
:1006F000ADF80400386800F47F40ADF80000A7F1C1
:100700000409D9F80000BDF800100140ADF8001050
:1007100069484468BDF800004FF0000B000463D541
:10072000DFF898A13868ADF8040000045CD5BDF886
:10073000040000F00F06BDF80400C0060AEB8600B6
:10074000D0F8001C34D50904ECD5D0F8001C40F6D4
:100750008F721140C0F8001CD0F8000C000504D5C1
:10076000002E7DD15946A26C1FE0A16E06EB46001B
:1007700004EB80080B6B08F11805D8F81C00002268
:10078000314698476968014469606989014489B2C2
:1007900069812A89914202D22988814202D9D8F8F6
:1007A0004C201DE0A06E826A1CE020469047B9E70D
:1007B0000906B7D5D0F8001C48F60F721140C0F8F2
:1007C000001C06EB460004EB800101F130000B8FAA
:1007D0002BB1426831462046FFF76BFFA2E70A6D56
:1007E000002A9FD03146E0E7BDF80000C00409D5DB
:1007F0006FF480503860E078A070607A10B9A06E15
:1008000040698047BDF800004FF00305000511D591
:10081000D9F80000C0060DD4A078E0700420A070C4
:10082000E07918B1A06E0069804700E0A5716FF40F
:1008300000603860BDF80000800508D56FF40070D6
:1008400038601F48006810B1016820468847BDF82D
:100850000000C0051DD56FF480703860A07900E0FD
:1008600025E0B0B1401E10F0FF00A07111D1607AF8
:10087000D9F800100028484605D021F01001016089
:1008800084F809B005E041F010010160A571012074
:100890006072BDF80000400509D56FF480603860D3
:1008A000A06EC16902B02046BDE8F05F0847BDE810
:1008B000FC9F0000445C00402C00002000500040E1
:1008C00034000020E4080008000000203800000088
:1008D000C20200081C0900083800002000040000C3
:1008E000D20200080000000000000000000000002C
:1008F0000000000000000000000E270703060406A9
:10090000000C014000100140080000000010000031
:0C091000000000000000000000000000DB
:0400000508000131BD
:00000001FF
